{
  "contractName": "COIManager",
  "abi": [
    {
      "constant": false,
      "inputs": [
        {
          "name": "dougAddress",
          "type": "address"
        }
      ],
      "name": "setDougAddress",
      "outputs": [
        {
          "name": "",
          "type": "bool"
        }
      ],
      "payable": false,
      "stateMutability": "nonpayable",
      "type": "function"
    },
    {
      "constant": true,
      "inputs": [],
      "name": "getDougAddress",
      "outputs": [
        {
          "name": "",
          "type": "address"
        }
      ],
      "payable": false,
      "stateMutability": "view",
      "type": "function"
    },
    {
      "constant": false,
      "inputs": [],
      "name": "remove",
      "outputs": [],
      "payable": false,
      "stateMutability": "nonpayable",
      "type": "function"
    },
    {
      "inputs": [],
      "payable": false,
      "stateMutability": "nonpayable",
      "type": "constructor"
    },
    {
      "anonymous": false,
      "inputs": [
        {
          "indexed": false,
          "name": "statusCode",
          "type": "uint256"
        },
        {
          "indexed": false,
          "name": "message",
          "type": "bytes32"
        }
      ],
      "name": "Status",
      "type": "event"
    },
    {
      "constant": false,
      "inputs": [
        {
          "name": "email",
          "type": "bytes32"
        }
      ],
      "name": "createCoi",
      "outputs": [],
      "payable": false,
      "stateMutability": "nonpayable",
      "type": "function"
    },
    {
      "constant": true,
      "inputs": [
        {
          "name": "certificateNumber",
          "type": "uint256"
        }
      ],
      "name": "getCoi",
      "outputs": [
        {
          "name": "_certificateNumber",
          "type": "uint256"
        },
        {
          "name": "_ownerId",
          "type": "uint256"
        }
      ],
      "payable": false,
      "stateMutability": "view",
      "type": "function"
    },
    {
      "constant": false,
      "inputs": [
        {
          "name": "certificateNumber",
          "type": "uint256"
        },
        {
          "name": "policyNumber",
          "type": "uint256"
        }
      ],
      "name": "addPolicy",
      "outputs": [],
      "payable": false,
      "stateMutability": "nonpayable",
      "type": "function"
    },
    {
      "constant": true,
      "inputs": [
        {
          "name": "certificateNumber",
          "type": "uint256"
        }
      ],
      "name": "getPoliciesOfCoi",
      "outputs": [
        {
          "name": "policies",
          "type": "uint256[10]"
        }
      ],
      "payable": false,
      "stateMutability": "view",
      "type": "function"
    },
    {
      "constant": false,
      "inputs": [
        {
          "name": "_ownerId",
          "type": "uint256"
        },
        {
          "name": "_name",
          "type": "bytes32"
        },
        {
          "name": "_effectiveDate",
          "type": "uint256"
        },
        {
          "name": "_expirationDate",
          "type": "uint256"
        },
        {
          "name": "_carrierId",
          "type": "uint256"
        }
      ],
      "name": "createPolicy",
      "outputs": [
        {
          "name": "result",
          "type": "uint256"
        }
      ],
      "payable": false,
      "stateMutability": "nonpayable",
      "type": "function"
    },
    {
      "constant": true,
      "inputs": [
        {
          "name": "policyNumber",
          "type": "uint256"
        }
      ],
      "name": "getPolicy",
      "outputs": [
        {
          "name": "_policyNumber",
          "type": "uint256"
        },
        {
          "name": "_ownerId",
          "type": "uint256"
        },
        {
          "name": "_name",
          "type": "bytes32"
        },
        {
          "name": "_status",
          "type": "uint8"
        },
        {
          "name": "_effectiveDate",
          "type": "uint256"
        },
        {
          "name": "_expirationDate",
          "type": "uint256"
        },
        {
          "name": "_carrierId",
          "type": "uint256"
        }
      ],
      "payable": false,
      "stateMutability": "view",
      "type": "function"
    },
    {
      "constant": true,
      "inputs": [
        {
          "name": "_policyNumber",
          "type": "uint256"
        }
      ],
      "name": "getPolicyStatus",
      "outputs": [
        {
          "name": "_status",
          "type": "uint8"
        }
      ],
      "payable": false,
      "stateMutability": "view",
      "type": "function"
    },
    {
      "constant": false,
      "inputs": [
        {
          "name": "_policyNumber",
          "type": "uint256"
        }
      ],
      "name": "cancelPolicy",
      "outputs": [],
      "payable": false,
      "stateMutability": "nonpayable",
      "type": "function"
    },
    {
      "constant": false,
      "inputs": [],
      "name": "changePolicyToExpired",
      "outputs": [],
      "payable": false,
      "stateMutability": "nonpayable",
      "type": "function"
    },
    {
      "constant": false,
      "inputs": [
        {
          "name": "policyNumber",
          "type": "bytes32"
        },
        {
          "name": "guest",
          "type": "address"
        }
      ],
      "name": "allowGuestToCheckCoi",
      "outputs": [],
      "payable": false,
      "stateMutability": "nonpayable",
      "type": "function"
    },
    {
      "constant": true,
      "inputs": [
        {
          "name": "email",
          "type": "bytes32"
        },
        {
          "name": "password",
          "type": "bytes32"
        }
      ],
      "name": "login",
      "outputs": [
        {
          "name": "result",
          "type": "uint8"
        }
      ],
      "payable": false,
      "stateMutability": "view",
      "type": "function"
    },
    {
      "constant": false,
      "inputs": [
        {
          "name": "_email",
          "type": "bytes32"
        },
        {
          "name": "_password",
          "type": "bytes32"
        },
        {
          "name": "_name",
          "type": "bytes32"
        },
        {
          "name": "_addressLine",
          "type": "bytes32"
        }
      ],
      "name": "createOwner",
      "outputs": [],
      "payable": false,
      "stateMutability": "nonpayable",
      "type": "function"
    },
    {
      "constant": false,
      "inputs": [
        {
          "name": "email",
          "type": "bytes32"
        },
        {
          "name": "id",
          "type": "uint256"
        }
      ],
      "name": "addCertificate",
      "outputs": [],
      "payable": false,
      "stateMutability": "nonpayable",
      "type": "function"
    },
    {
      "constant": true,
      "inputs": [
        {
          "name": "email",
          "type": "bytes32"
        }
      ],
      "name": "getOwner",
      "outputs": [
        {
          "name": "_email",
          "type": "bytes32"
        },
        {
          "name": "_name",
          "type": "bytes32"
        },
        {
          "name": "_addressLine",
          "type": "bytes32"
        },
        {
          "name": "_certificates",
          "type": "uint256[20]"
        }
      ],
      "payable": false,
      "stateMutability": "view",
      "type": "function"
    },
    {
      "constant": false,
      "inputs": [
        {
          "name": "_email",
          "type": "bytes32"
        },
        {
          "name": "_password",
          "type": "bytes32"
        },
        {
          "name": "_name",
          "type": "bytes32"
        }
      ],
      "name": "createCarrier",
      "outputs": [],
      "payable": false,
      "stateMutability": "nonpayable",
      "type": "function"
    },
    {
      "constant": true,
      "inputs": [
        {
          "name": "email",
          "type": "bytes32"
        }
      ],
      "name": "getCarrier",
      "outputs": [
        {
          "name": "_name",
          "type": "bytes32"
        },
        {
          "name": "_naicCode",
          "type": "uint256"
        },
        {
          "name": "_email",
          "type": "bytes32"
        }
      ],
      "payable": false,
      "stateMutability": "view",
      "type": "function"
    },
    {
      "constant": false,
      "inputs": [
        {
          "name": "_email",
          "type": "bytes32"
        },
        {
          "name": "_password",
          "type": "bytes32"
        },
        {
          "name": "_name",
          "type": "bytes32"
        },
        {
          "name": "_contactPhone",
          "type": "bytes32"
        },
        {
          "name": "_addressLine",
          "type": "bytes32"
        }
      ],
      "name": "createBroker",
      "outputs": [],
      "payable": false,
      "stateMutability": "nonpayable",
      "type": "function"
    },
    {
      "constant": true,
      "inputs": [
        {
          "name": "email",
          "type": "bytes32"
        }
      ],
      "name": "getBroker",
      "outputs": [
        {
          "name": "_name",
          "type": "bytes32"
        },
        {
          "name": "_email",
          "type": "bytes32"
        },
        {
          "name": "_contactPhone",
          "type": "bytes32"
        },
        {
          "name": "_addressLine",
          "type": "bytes32"
        }
      ],
      "payable": false,
      "stateMutability": "view",
      "type": "function"
    }
  ],
  "bytecode": "0x6060604052341561000f57600080fd5b33600160006101000a81548173ffffffffffffffffffffffffffffffffffffffff021916908373ffffffffffffffffffffffffffffffffffffffff160217905550611c288061005f6000396000f30060606040526004361061011d576000357c0100000000000000000000000000000000000000000000000000000000900463ffffffff168063012e431c146101225780630bf062bf146101815780631c3ce44e146101965780632b07fce3146101d45780633b03249c1461024b578063405a92a51461029057806347c9e356146102d65780635ae369be146103065780635b43372f14610347578063635a9f22146103b757806380e2653e1461040d578063921ae01d1461045e578063983cd570146104b35780639b83915a14610512578063a0d121a91461056d578063a7f4377914610599578063b20e8bcc146105ae578063c11f6341146105d1578063cac9fff5146105f8578063deb931a214610646578063f5f8231a146106d6575b600080fd5b341561012d57600080fd5b610143600480803590602001909190505061072f565b6040518082600a60200280838360005b8381101561016e578082015181840152602081019050610153565b5050505090500191505060405180910390f35b341561018c57600080fd5b610194610804565b005b34156101a157600080fd5b6101b760048080359060200190919050506108ab565b604051808381526020018281526020019250505060405180910390f35b34156101df57600080fd5b6101f56004808035906020019091905050610986565b60405180888152602001878152602001866000191660001916815260200185600281111561021f57fe5b60ff16815260200184815260200183815260200182815260200197505050505050505060405180910390f35b341561025657600080fd5b61026c6004808035906020019091905050610ab0565b6040518082600281111561027c57fe5b60ff16815260200191505060405180910390f35b341561029b57600080fd5b6102d460048080356000191690602001909190803573ffffffffffffffffffffffffffffffffffffffff16906020019091905050610bb9565b005b34156102e157600080fd5b610304600480803560001916906020019091908035906020019091905050610cdd565b005b341561031157600080fd5b6103456004808035600019169060200190919080356000191690602001909190803560001916906020019091905050610da1565b005b341561035257600080fd5b61036c600480803560001916906020019091905050610e7e565b60405180856000191660001916815260200184600019166000191681526020018360001916600019168152602001826000191660001916815260200194505050505060405180910390f35b34156103c257600080fd5b6103e960048080356000191690602001909190803560001916906020019091905050610f81565b604051808260028111156103f957fe5b60ff16815260200191505060405180910390f35b341561041857600080fd5b610444600480803573ffffffffffffffffffffffffffffffffffffffff16906020019091905050611065565b604051808215151515815260200191505060405180910390f35b341561046957600080fd5b610471611153565b604051808273ffffffffffffffffffffffffffffffffffffffff1673ffffffffffffffffffffffffffffffffffffffff16815260200191505060405180910390f35b34156104be57600080fd5b6104fc60048080359060200190919080356000191690602001909190803590602001909190803590602001909190803590602001909190505061117c565b6040518082815260200191505060405180910390f35b341561051d57600080fd5b61056b60048080356000191690602001909190803560001916906020019091908035600019169060200190919080356000191690602001909190803560001916906020019091905050611273565b005b341561057857600080fd5b6105976004808035906020019091908035906020019091905050611372565b005b34156105a457600080fd5b6105ac61145a565b005b34156105b957600080fd5b6105cf60048080359060200190919050506114eb565b005b34156105dc57600080fd5b6105f660048080356000191690602001909190505061159e565b005b341561060357600080fd5b6106446004808035600019169060200190919080356000191690602001909190803560001916906020019091908035600019169060200190919050506117cb565b005b341561065157600080fd5b61066b6004808035600019169060200190919050506118b9565b6040518085600019166000191681526020018460001916600019168152602001836000191660001916815260200182601460200280838360005b838110156106c05780820151818401526020810190506106a5565b5050505090500194505050505060405180910390f35b34156106e157600080fd5b6106fb6004808035600019169060200190919050506119c9565b6040518084600019166000191681526020018381526020018260001916600019168152602001935050505060405180910390f35b610737611baa565b60006107627f636f690000000000000000000000000000000000000000000000000000000000611abd565b90508073ffffffffffffffffffffffffffffffffffffffff1663012e431c84600060405161014001526040518263ffffffff167c01000000000000000000000000000000000000000000000000000000000281526004018082815260200191505061014060405180830381600087803b15156107dd57600080fd5b6102c65a03f115156107ee57600080fd5b5050506040518061014001604052915050919050565b600061082f7f706f6c6963790000000000000000000000000000000000000000000000000000611abd565b90508073ffffffffffffffffffffffffffffffffffffffff16630bf062bf6040518163ffffffff167c0100000000000000000000000000000000000000000000000000000000028152600401600060405180830381600087803b151561089457600080fd5b6102c65a03f115156108a557600080fd5b50505050565b60008060006108d97f636f690000000000000000000000000000000000000000000000000000000000611abd565b90508073ffffffffffffffffffffffffffffffffffffffff16631c3ce44e856000604051604001526040518263ffffffff167c0100000000000000000000000000000000000000000000000000000000028152600401808281526020019150506040805180830381600087803b151561095157600080fd5b6102c65a03f1151561096257600080fd5b50505060405180519060200180519050809350819450505082829250925050915091565b6000806000806000806000806109bb7f706f6c6963790000000000000000000000000000000000000000000000000000611abd565b90508073ffffffffffffffffffffffffffffffffffffffff16632b07fce38a600060405160e001526040518263ffffffff167c01000000000000000000000000000000000000000000000000000000000281526004018082815260200191505060e060405180830381600087803b1515610a3457600080fd5b6102c65a03f11515610a4557600080fd5b50505060405180519060200180519060200180519060200180519060200180519060200180519060200180519050809850819950829a50839b50849c50859d50869e505050505050505087878787878787975097509750975097509750975050919395979092949650565b600080610adc7f706f6c6963790000000000000000000000000000000000000000000000000000611abd565b90508073ffffffffffffffffffffffffffffffffffffffff16632b07fce384600060405160e001526040518263ffffffff167c01000000000000000000000000000000000000000000000000000000000281526004018082815260200191505060e060405180830381600087803b1515610b5557600080fd5b6102c65a03f11515610b6657600080fd5b505050604051805190602001805190602001805190602001805190602001805190602001805190602001805190509091929394955090919293945090919293509091509050508092505081915050919050565b6000610be47f7065726d00000000000000000000000000000000000000000000000000000000611abd565b90508073ffffffffffffffffffffffffffffffffffffffff1663fe29db028385336040518463ffffffff167c0100000000000000000000000000000000000000000000000000000000028152600401808473ffffffffffffffffffffffffffffffffffffffff1673ffffffffffffffffffffffffffffffffffffffff16815260200183600019166000191681526020018273ffffffffffffffffffffffffffffffffffffffff1673ffffffffffffffffffffffffffffffffffffffff1681526020019350505050600060405180830381600087803b1515610cc457600080fd5b6102c65a03f11515610cd557600080fd5b505050505050565b6000610d087f7573657200000000000000000000000000000000000000000000000000000000611abd565b90508073ffffffffffffffffffffffffffffffffffffffff166347c9e35684846040518363ffffffff167c010000000000000000000000000000000000000000000000000000000002815260040180836000191660001916815260200182815260200192505050600060405180830381600087803b1515610d8857600080fd5b6102c65a03f11515610d9957600080fd5b505050505050565b6000610dcc7f7573657200000000000000000000000000000000000000000000000000000000611abd565b90508073ffffffffffffffffffffffffffffffffffffffff16635ae369be8585856040518463ffffffff167c0100000000000000000000000000000000000000000000000000000000028152600401808460001916600019168152602001836000191660001916815260200182600019166000191681526020019350505050600060405180830381600087803b1515610e6457600080fd5b6102c65a03f11515610e7557600080fd5b50505050505050565b6000806000806000610eaf7f7573657200000000000000000000000000000000000000000000000000000000611abd565b90508073ffffffffffffffffffffffffffffffffffffffff16635b43372f876000604051608001526040518263ffffffff167c0100000000000000000000000000000000000000000000000000000000028152600401808260001916600019168152602001915050608060405180830381600087803b1515610f3057600080fd5b6102c65a03f11515610f4157600080fd5b5050506040518051906020018051906020018051906020018051905080955081965082975083985050505050848484849450945094509450509193509193565b600080610fad7f7573657200000000000000000000000000000000000000000000000000000000611abd565b90508073ffffffffffffffffffffffffffffffffffffffff1663635a9f2285856000604051602001526040518363ffffffff167c0100000000000000000000000000000000000000000000000000000000028152600401808360001916600019168152602001826000191660001916815260200192505050602060405180830381600087803b151561103e57600080fd5b6102c65a03f1151561104f57600080fd5b5050506040518051905091508191505092915050565b6000806000809054906101000a900473ffffffffffffffffffffffffffffffffffffffff1673ffffffffffffffffffffffffffffffffffffffff16141580156110fb57506000809054906101000a900473ffffffffffffffffffffffffffffffffffffffff1673ffffffffffffffffffffffffffffffffffffffff163373ffffffffffffffffffffffffffffffffffffffff1614155b15611109576000905061114e565b816000806101000a81548173ffffffffffffffffffffffffffffffffffffffff021916908373ffffffffffffffffffffffffffffffffffffffff160217905550600190505b919050565b60008060009054906101000a900473ffffffffffffffffffffffffffffffffffffffff16905090565b6000806111a87f706f6c6963790000000000000000000000000000000000000000000000000000611abd565b90508073ffffffffffffffffffffffffffffffffffffffff1663983cd57088888888886000604051602001526040518663ffffffff167c010000000000000000000000000000000000000000000000000000000002815260040180868152602001856000191660001916815260200184815260200183815260200182815260200195505050505050602060405180830381600087803b151561124957600080fd5b6102c65a03f1151561125a57600080fd5b5050506040518051905091508191505095945050505050565b600061129e7f7573657200000000000000000000000000000000000000000000000000000000611abd565b90508073ffffffffffffffffffffffffffffffffffffffff16639b83915a87878787876040518663ffffffff167c0100000000000000000000000000000000000000000000000000000000028152600401808660001916600019168152602001856000191660001916815260200184600019166000191681526020018360001916600019168152602001826000191660001916815260200195505050505050600060405180830381600087803b151561135657600080fd5b6102c65a03f1151561136757600080fd5b505050505050505050565b600080600281111561138057fe5b61138983610ab0565b600281111561139457fe5b1415156113a057600080fd5b6113c97f636f690000000000000000000000000000000000000000000000000000000000611abd565b90508073ffffffffffffffffffffffffffffffffffffffff1663a0d121a984846040518363ffffffff167c01000000000000000000000000000000000000000000000000000000000281526004018083815260200182815260200192505050600060405180830381600087803b151561144157600080fd5b6102c65a03f1151561145257600080fd5b505050505050565b6000809054906101000a900473ffffffffffffffffffffffffffffffffffffffff1673ffffffffffffffffffffffffffffffffffffffff163373ffffffffffffffffffffffffffffffffffffffff1614156114e9576000809054906101000a900473ffffffffffffffffffffffffffffffffffffffff1673ffffffffffffffffffffffffffffffffffffffff16ff5b565b60006115167f706f6c6963790000000000000000000000000000000000000000000000000000611abd565b90508073ffffffffffffffffffffffffffffffffffffffff1663b20e8bcc836040518263ffffffff167c010000000000000000000000000000000000000000000000000000000002815260040180828152602001915050600060405180830381600087803b151561158657600080fd5b6102c65a03f1151561159757600080fd5b5050505050565b6000806000806115cd7f636f690000000000000000000000000000000000000000000000000000000000611abd565b93506115f87f7573657200000000000000000000000000000000000000000000000000000000611abd565b92508273ffffffffffffffffffffffffffffffffffffffff1663f69b803f866000604051604001526040518263ffffffff167c01000000000000000000000000000000000000000000000000000000000281526004018082600019166000191681526020019150506040805180830381600087803b151561167857600080fd5b6102c65a03f1151561168957600080fd5b5050506040518051906020018051905050809250508373ffffffffffffffffffffffffffffffffffffffff16633ffb190b836000604051602001526040518263ffffffff167c010000000000000000000000000000000000000000000000000000000002815260040180828152602001915050602060405180830381600087803b151561171557600080fd5b6102c65a03f1151561172657600080fd5b5050506040518051905090508273ffffffffffffffffffffffffffffffffffffffff166347c9e35686836040518363ffffffff167c010000000000000000000000000000000000000000000000000000000002815260040180836000191660001916815260200182815260200192505050600060405180830381600087803b15156117b057600080fd5b6102c65a03f115156117c157600080fd5b5050505050505050565b60006117f67f7573657200000000000000000000000000000000000000000000000000000000611abd565b90508073ffffffffffffffffffffffffffffffffffffffff1663cac9fff5868686866040518563ffffffff167c0100000000000000000000000000000000000000000000000000000000028152600401808560001916600019168152602001846000191660001916815260200183600019166000191681526020018260001916600019168152602001945050505050600060405180830381600087803b151561189e57600080fd5b6102c65a03f115156118af57600080fd5b5050505050505050565b60008060006118c6611bd3565b60006118f17f7573657200000000000000000000000000000000000000000000000000000000611abd565b90508073ffffffffffffffffffffffffffffffffffffffff1663deb931a28760006040516102e001526040518263ffffffff167c01000000000000000000000000000000000000000000000000000000000281526004018082600019166000191681526020019150506102e060405180830381600087803b151561197457600080fd5b6102c65a03f1151561198557600080fd5b505050604051805190602001805190602001805190602001806102800160405280955081965082975083985050505050848484849450945094509450509193509193565b6000806000806119f87f7573657200000000000000000000000000000000000000000000000000000000611abd565b90508073ffffffffffffffffffffffffffffffffffffffff1663f5f8231a866000604051606001526040518263ffffffff167c0100000000000000000000000000000000000000000000000000000000028152600401808260001916600019168152602001915050606060405180830381600087803b1515611a7957600080fd5b6102c65a03f11515611a8a57600080fd5b50505060405180519060200180519060200180519050809450819550829650505050838383935093509350509193909250565b60008060009054906101000a900473ffffffffffffffffffffffffffffffffffffffff1673ffffffffffffffffffffffffffffffffffffffff1663e16c7d98836000604051602001526040518263ffffffff167c0100000000000000000000000000000000000000000000000000000000028152600401808260001916600019168152602001915050602060405180830381600087803b1515611b5f57600080fd5b6102c65a03f11515611b7057600080fd5b50505060405180519050905060008173ffffffffffffffffffffffffffffffffffffffff1614151515611ba257600080fd5b809050919050565b61014060405190810160405280600a905b6000815260200190600190039081611bbb5790505090565b610280604051908101604052806014905b6000815260200190600190039081611be457905050905600a165627a7a72305820cebcc7d316aead7c3b79880176f7f0ad881e93243a76641c44b398e8078f009f0029",
  "source": "pragma solidity ^0.4.4;\nimport \"./Doug.sol\";\nimport \"./DataHelper.sol\";\nimport \"./Coi.sol\";\nimport \"./DougEnabled.sol\";\nimport \"./Permission.sol\";\nimport \"./User.sol\";\nimport \"./Policy.sol\";\n\ncontract COIManager is DougEnabled {\n    address owner;\n\n    function COIManager() public {\n        owner = msg.sender;\n    }\n\n    modifier isAdmin() {\n        require(msg.sender == owner);\n        _;\n    }\n    // COI Methods\n\n    function createCoi(bytes32 email) public {\n        address addressCoi = obtainControllerContract(\"coi\");\n        address user = obtainControllerContract(\"user\");\n        uint ownerId;\n        (ownerId, ) = User(user).getUserCredentials(email);\n\n        uint result = Coi(addressCoi).createCoi(ownerId);\n        User(user).addCertificate(email, result);\n    }\n\n    function getCoi(uint certificateNumber) public view\n        returns(uint _certificateNumber, uint _ownerId)\n    {\n        address addressCoi = obtainControllerContract(\"coi\");\n\n        (_certificateNumber, _ownerId) = Coi(addressCoi).getCoi(certificateNumber);\n        return (_certificateNumber, _ownerId);\n    }\n\n    function addPolicy(uint certificateNumber, uint policyNumber) public {\n        require(getPolicyStatus(policyNumber) == DataHelper.Stage.Active);\n        address addressCoi = obtainControllerContract(\"coi\");\n\n        Coi(addressCoi).addPolicy(certificateNumber, policyNumber);\n    }\n\n    function getPoliciesOfCoi(uint certificateNumber) public view returns (uint[10] policies) {\n        address addressCoi = obtainControllerContract(\"coi\");\n\n        policies = Coi(addressCoi).getPoliciesOfCoi(certificateNumber);\n    }\n\n    // Policy Methods\n\n    function createPolicy(\n      uint _ownerId,\n      bytes32 _name,\n      uint _effectiveDate,\n      uint _expirationDate,\n      uint _carrierId\n    )\n     public returns (uint result)\n    {\n        address policy = obtainControllerContract(\"policy\");\n        result = Policy(policy).createPolicy(_ownerId, _name, _effectiveDate, _expirationDate, _carrierId);\n        return result;\n    }\n\n    function getPolicy(\n     uint policyNumber\n    )\n    public view\n    returns(\n     uint _policyNumber,\n     uint _ownerId,\n     bytes32 _name,\n     DataHelper.Stage _status,\n     uint _effectiveDate,\n     uint _expirationDate,\n     uint _carrierId\n    )\n    {\n        address policy = obtainControllerContract(\"policy\");\n\n        (_policyNumber,\n         _ownerId,\n         _name,\n         _status,\n         _effectiveDate,\n         _expirationDate,\n         _carrierId\n         ) = Policy(policy).getPolicy(policyNumber);\n         return (_policyNumber, _ownerId, _name, _status, _effectiveDate, _expirationDate, _carrierId);\n    }\n\n    function getPolicyStatus(uint _policyNumber) public view returns (DataHelper.Stage _status) {\n        address policy = obtainControllerContract(\"policy\");\n\n        (, , , _status, , , ) = Policy(policy).getPolicy(_policyNumber);\n        return _status;\n    }\n\n    function cancelPolicy(uint _policyNumber) public {\n        address policy = obtainControllerContract(\"policy\");\n\n        Policy(policy).cancelPolicy(_policyNumber);\n    }\n\n    function changePolicyToExpired() public {\n        address policy = obtainControllerContract(\"policy\");\n        Policy(policy).changePolicyToExpired();\n    }\n\n    // Permission Methods\n\n    function allowGuestToCheckCoi(bytes32 policyNumber, address guest) public {\n        address perm = obtainControllerContract(\"perm\");\n        Permission(perm).addGuest(guest, policyNumber, msg.sender);\n    }\n\n    function setPermission(bytes32 policyNumber, address _agency, address _owner) private {\n        address perm = obtainControllerContract(\"perm\");\n        Permission(perm).setPermission(policyNumber, _agency, _owner);\n    }\n\n    // User Methods\n    function login(bytes32 email, bytes32 password) public view\n    returns (DataHelper.UserType result) {\n        address user = obtainControllerContract(\"user\");\n        result = User(user).login(email, password);\n        return result;\n    }\n\n    function createOwner(\n        bytes32 _email,\n        bytes32 _password,\n        bytes32 _name,\n        bytes32 _addressLine\n    )\n    public\n    {\n        address user = obtainControllerContract(\"user\");\n\n        User(user).createOwner(_email, _password, _name, _addressLine);\n    }\n\n    function addCertificate(bytes32 email, uint id) public {\n        address user = obtainControllerContract(\"user\");\n        User(user).addCertificate(email, id);\n    }\n\n    function getOwner(bytes32 email)\n    public\n    view\n    returns (bytes32 _email, bytes32 _name, bytes32 _addressLine, uint[20] _certificates)\n    {\n        address user = obtainControllerContract(\"user\");\n        (_email, _name, _addressLine, _certificates) = User(user).getOwner(email);\n        return (_email, _name, _addressLine, _certificates);\n    }\n\n    function createCarrier(\n        bytes32 _email,\n        bytes32 _password,\n        bytes32 _name\n    )\n    public\n    {\n        address user = obtainControllerContract(\"user\");\n\n        User(user).createCarrier(_email, _password, _name);\n    }\n\n    function getCarrier(bytes32 email)\n    public\n    view\n    returns (bytes32 _name, uint _naicCode, bytes32 _email)\n    {\n        address user = obtainControllerContract(\"user\");\n\n        (_name, _naicCode, _email) = User(user).getCarrier(email);\n        return (_name, _naicCode, _email);\n    }\n\n    function createBroker(\n        bytes32 _email,\n        bytes32 _password,\n        bytes32 _name,\n        bytes32 _contactPhone,\n        bytes32 _addressLine\n    )\n    public\n    {\n        address user = obtainControllerContract(\"user\");\n\n        User(user).createBroker(_email, _password, _name, _contactPhone, _addressLine);\n    }\n\n    function getBroker(bytes32 email)\n    public\n    view\n    returns (bytes32 _name, bytes32 _email, bytes32 _contactPhone , bytes32 _addressLine)\n    {\n        address user = obtainControllerContract(\"user\");\n\n        (_name, _email, _contactPhone, _addressLine) = User(user).getBroker(email);\n        return (_name, _email, _contactPhone, _addressLine);\n    }\n\n    // Helper Methods\n\n    function obtainControllerContract(bytes32 controller) private view returns (address _contractAddress) {\n        _contractAddress = Doug(DOUG).getContract(controller);\n        require (_contractAddress != 0x0);\n        return _contractAddress;\n    }\n}\n",
  "sourcePath": "/Users/luismatasalvatierra/CW_REPOS/bcois-cw/contracts/COIManager.sol",
  "compiler": {
    "name": "solc",
    "version": "0.4.19+commit.c4cbbb05.Emscripten.clang"
  },
  "schemaVersion": "1.0.1",
  "updatedAt": "2018-04-18T09:46:36.571Z"
}